{
  "contractName": "GravatarRegistry",
  "abi": [
    {
      "anonymous": false,
      "inputs": [
        {
          "indexed": false,
          "internalType": "uint256",
          "name": "id",
          "type": "uint256"
        },
        {
          "indexed": true,
          "internalType": "address",
          "name": "owner",
          "type": "address"
        },
        {
          "indexed": false,
          "internalType": "string",
          "name": "displayName",
          "type": "string"
        },
        {
          "indexed": false,
          "internalType": "string",
          "name": "imageUrl",
          "type": "string"
        }
      ],
      "name": "NewGravatar",
      "type": "event"
    },
    {
      "anonymous": false,
      "inputs": [
        {
          "indexed": false,
          "internalType": "uint256",
          "name": "id",
          "type": "uint256"
        },
        {
          "indexed": true,
          "internalType": "address",
          "name": "owner",
          "type": "address"
        },
        {
          "indexed": false,
          "internalType": "string",
          "name": "displayName",
          "type": "string"
        },
        {
          "indexed": false,
          "internalType": "string",
          "name": "imageUrl",
          "type": "string"
        }
      ],
      "name": "UpdatedGravatar",
      "type": "event"
    },
    {
      "inputs": [
        {
          "internalType": "uint256",
          "name": "",
          "type": "uint256"
        }
      ],
      "name": "gravatarToOwner",
      "outputs": [
        {
          "internalType": "address",
          "name": "",
          "type": "address"
        }
      ],
      "stateMutability": "view",
      "type": "function"
    },
    {
      "inputs": [
        {
          "internalType": "uint256",
          "name": "",
          "type": "uint256"
        }
      ],
      "name": "gravatars",
      "outputs": [
        {
          "internalType": "address",
          "name": "owner",
          "type": "address"
        },
        {
          "internalType": "string",
          "name": "displayName",
          "type": "string"
        },
        {
          "internalType": "string",
          "name": "imageUrl",
          "type": "string"
        }
      ],
      "stateMutability": "view",
      "type": "function"
    },
    {
      "inputs": [
        {
          "internalType": "address",
          "name": "",
          "type": "address"
        }
      ],
      "name": "ownerToGravatar",
      "outputs": [
        {
          "internalType": "uint256",
          "name": "",
          "type": "uint256"
        }
      ],
      "stateMutability": "view",
      "type": "function"
    },
    {
      "inputs": [
        {
          "internalType": "string",
          "name": "_displayName",
          "type": "string"
        },
        {
          "internalType": "string",
          "name": "_imageUrl",
          "type": "string"
        }
      ],
      "name": "createGravatar",
      "outputs": [],
      "stateMutability": "nonpayable",
      "type": "function"
    },
    {
      "inputs": [
        {
          "internalType": "address",
          "name": "owner",
          "type": "address"
        }
      ],
      "name": "getGravatar",
      "outputs": [
        {
          "internalType": "string",
          "name": "",
          "type": "string"
        },
        {
          "internalType": "string",
          "name": "",
          "type": "string"
        }
      ],
      "stateMutability": "view",
      "type": "function"
    },
    {
      "inputs": [
        {
          "internalType": "string",
          "name": "_displayName",
          "type": "string"
        }
      ],
      "name": "updateGravatarName",
      "outputs": [],
      "stateMutability": "nonpayable",
      "type": "function"
    },
    {
      "inputs": [
        {
          "internalType": "string",
          "name": "_imageUrl",
          "type": "string"
        }
      ],
      "name": "updateGravatarImage",
      "outputs": [],
      "stateMutability": "nonpayable",
      "type": "function"
    },
    {
      "inputs": [],
      "name": "setMythicalGravatar",
      "outputs": [],
      "stateMutability": "nonpayable",
      "type": "function"
    }
  ],
  "bytecode": "0x608060405234801561001057600080fd5b506114eb806100206000396000f3fe608060405234801561001057600080fd5b50600436106100875760003560e01c8063a5ac36341161005b578063a5ac363414610113578063b18588fb14610143578063cdb3344a1461015f578063d5ce24ed1461017b57610087565b806281d6e51461008c5780631d4f2c6d146100a8578063359c1f72146100b257806388d0d391146100e3575b600080fd5b6100a660048036038101906100a19190610f1f565b6101ad565b005b6100b0610420565b005b6100cc60048036038101906100c79190610ef6565b61056c565b6040516100da92919061112c565b60405180910390f35b6100fd60048036038101906100f89190610fcc565b61076b565b60405161010a91906110cc565b60405180910390f35b61012d60048036038101906101289190610ef6565b61079e565b60405161013a9190611163565b60405180910390f35b61015d60048036038101906101589190610f1f565b6107b6565b005b61017960048036038101906101749190610f60565b610a29565b005b61019560048036038101906101909190610fcc565b610c57565b6040516101a4939291906110e7565b60405180910390f35b6000600260003373ffffffffffffffffffffffffffffffffffffffff1673ffffffffffffffffffffffffffffffffffffffff1681526020019081526020016000205414156101fa57600080fd5b6000600260003373ffffffffffffffffffffffffffffffffffffffff1673ffffffffffffffffffffffffffffffffffffffff1681526020019081526020016000205481548110610273577f4e487b7100000000000000000000000000000000000000000000000000000000600052603260045260246000fd5b906000526020600020906003020160000160009054906101000a900473ffffffffffffffffffffffffffffffffffffffff1673ffffffffffffffffffffffffffffffffffffffff163373ffffffffffffffffffffffffffffffffffffffff16146102dc57600080fd5b6000600260003373ffffffffffffffffffffffffffffffffffffffff1673ffffffffffffffffffffffffffffffffffffffff168152602001908152602001600020549050816000828154811061035b577f4e487b7100000000000000000000000000000000000000000000000000000000600052603260045260246000fd5b9060005260206000209060030201600201908051906020019061037f929190610dc1565b503373ffffffffffffffffffffffffffffffffffffffff167f76571b7a897a1509c641587568218a290018fbdc8b9a724f17b77ff0eec22c0c82600084815481106103f3577f4e487b7100000000000000000000000000000000000000000000000000000000600052603260045260246000fd5b90600052602060002090600302016001018560405161041493929190611208565b60405180910390a25050565b60006040518060600160405280600073ffffffffffffffffffffffffffffffffffffffff1681526020016040518060400160405280600181526020017f200000000000000000000000000000000000000000000000000000000000000081525081526020016040518060400160405280600181526020017f2000000000000000000000000000000000000000000000000000000000000000815250815250908060018154018082558091505060019003906000526020600020906003020160009091909190915060008201518160000160006101000a81548173ffffffffffffffffffffffffffffffffffffffff021916908373ffffffffffffffffffffffffffffffffffffffff160217905550602082015181600101908051906020019061054a929190610dc1565b506040820151816002019080519060200190610567929190610dc1565b505050565b6060806000600260008573ffffffffffffffffffffffffffffffffffffffff1673ffffffffffffffffffffffffffffffffffffffff168152602001908152602001600020549050600081815481106105ed577f4e487b7100000000000000000000000000000000000000000000000000000000600052603260045260246000fd5b906000526020600020906003020160010160008281548110610638577f4e487b7100000000000000000000000000000000000000000000000000000000600052603260045260246000fd5b906000526020600020906003020160020181805461065590611386565b80601f016020809104026020016040519081016040528092919081815260200182805461068190611386565b80156106ce5780601f106106a3576101008083540402835291602001916106ce565b820191906000526020600020905b8154815290600101906020018083116106b157829003601f168201915b505050505091508080546106e190611386565b80601f016020809104026020016040519081016040528092919081815260200182805461070d90611386565b801561075a5780601f1061072f5761010080835404028352916020019161075a565b820191906000526020600020905b81548152906001019060200180831161073d57829003601f168201915b505050505090509250925050915091565b60016020528060005260406000206000915054906101000a900473ffffffffffffffffffffffffffffffffffffffff1681565b60026020528060005260406000206000915090505481565b6000600260003373ffffffffffffffffffffffffffffffffffffffff1673ffffffffffffffffffffffffffffffffffffffff16815260200190815260200160002054141561080357600080fd5b6000600260003373ffffffffffffffffffffffffffffffffffffffff1673ffffffffffffffffffffffffffffffffffffffff168152602001908152602001600020548154811061087c577f4e487b7100000000000000000000000000000000000000000000000000000000600052603260045260246000fd5b906000526020600020906003020160000160009054906101000a900473ffffffffffffffffffffffffffffffffffffffff1673ffffffffffffffffffffffffffffffffffffffff163373ffffffffffffffffffffffffffffffffffffffff16146108e557600080fd5b6000600260003373ffffffffffffffffffffffffffffffffffffffff1673ffffffffffffffffffffffffffffffffffffffff1681526020019081526020016000205490508160008281548110610964577f4e487b7100000000000000000000000000000000000000000000000000000000600052603260045260246000fd5b90600052602060002090600302016001019080519060200190610988929190610dc1565b503373ffffffffffffffffffffffffffffffffffffffff167f76571b7a897a1509c641587568218a290018fbdc8b9a724f17b77ff0eec22c0c8284600085815481106109fd577f4e487b7100000000000000000000000000000000000000000000000000000000600052603260045260246000fd5b9060005260206000209060030201600201604051610a1d939291906111c3565b60405180910390a25050565b6000600260003373ffffffffffffffffffffffffffffffffffffffff1673ffffffffffffffffffffffffffffffffffffffff1681526020019081526020016000205414610a7557600080fd5b600060405180606001604052803373ffffffffffffffffffffffffffffffffffffffff16815260200184815260200183815250908060018154018082558091505060019003906000526020600020906003020160009091909190915060008201518160000160006101000a81548173ffffffffffffffffffffffffffffffffffffffff021916908373ffffffffffffffffffffffffffffffffffffffff1602179055506020820151816001019080519060200190610b34929190610dc1565b506040820151816002019080519060200190610b51929190610dc1565b50505060006001600080549050610b6891906112d4565b9050336001600083815260200190815260200160002060006101000a81548173ffffffffffffffffffffffffffffffffffffffff021916908373ffffffffffffffffffffffffffffffffffffffff16021790555080600260003373ffffffffffffffffffffffffffffffffffffffff1673ffffffffffffffffffffffffffffffffffffffff168152602001908152602001600020819055503373ffffffffffffffffffffffffffffffffffffffff167f9ab3aefb2ba6dc12910ac1bce4692cf5c3c0d06cff16327c64a3ef78228b130b828585604051610c4a9392919061117e565b60405180910390a2505050565b60008181548110610c6757600080fd5b90600052602060002090600302016000915090508060000160009054906101000a900473ffffffffffffffffffffffffffffffffffffffff1690806001018054610cb090611386565b80601f0160208091040260200160405190810160405280929190818152602001828054610cdc90611386565b8015610d295780601f10610cfe57610100808354040283529160200191610d29565b820191906000526020600020905b815481529060010190602001808311610d0c57829003601f168201915b505050505090806002018054610d3e90611386565b80601f0160208091040260200160405190810160405280929190818152602001828054610d6a90611386565b8015610db75780601f10610d8c57610100808354040283529160200191610db7565b820191906000526020600020905b815481529060010190602001808311610d9a57829003601f168201915b5050505050905083565b828054610dcd90611386565b90600052602060002090601f016020900481019282610def5760008555610e36565b82601f10610e0857805160ff1916838001178555610e36565b82800160010185558215610e36579182015b82811115610e35578251825591602001919060010190610e1a565b5b509050610e439190610e47565b5090565b5b80821115610e60576000816000905550600101610e48565b5090565b6000610e77610e7284611272565b61124d565b905082815260208101848484011115610e8f57600080fd5b610e9a848285611344565b509392505050565b600081359050610eb181611487565b92915050565b600082601f830112610ec857600080fd5b8135610ed8848260208601610e64565b91505092915050565b600081359050610ef08161149e565b92915050565b600060208284031215610f0857600080fd5b6000610f1684828501610ea2565b91505092915050565b600060208284031215610f3157600080fd5b600082013567ffffffffffffffff811115610f4b57600080fd5b610f5784828501610eb7565b91505092915050565b60008060408385031215610f7357600080fd5b600083013567ffffffffffffffff811115610f8d57600080fd5b610f9985828601610eb7565b925050602083013567ffffffffffffffff811115610fb657600080fd5b610fc285828601610eb7565b9150509250929050565b600060208284031215610fde57600080fd5b6000610fec84828501610ee1565b91505092915050565b610ffe81611308565b82525050565b600061100f826112b8565b61101981856112c3565b9350611029818560208601611353565b61103281611476565b840191505092915050565b6000815461104a81611386565b61105481866112c3565b9450600182166000811461106f5760018114611081576110b4565b60ff19831686526020860193506110b4565b61108a856112a3565b60005b838110156110ac5781548189015260018201915060208101905061108d565b808801955050505b50505092915050565b6110c68161133a565b82525050565b60006020820190506110e16000830184610ff5565b92915050565b60006060820190506110fc6000830186610ff5565b818103602083015261110e8185611004565b905081810360408301526111228184611004565b9050949350505050565b600060408201905081810360008301526111468185611004565b9050818103602083015261115a8184611004565b90509392505050565b600060208201905061117860008301846110bd565b92915050565b600060608201905061119360008301866110bd565b81810360208301526111a58185611004565b905081810360408301526111b98184611004565b9050949350505050565b60006060820190506111d860008301866110bd565b81810360208301526111ea8185611004565b905081810360408301526111fe818461103d565b9050949350505050565b600060608201905061121d60008301866110bd565b818103602083015261122f818561103d565b905081810360408301526112438184611004565b9050949350505050565b6000611257611268565b905061126382826113b8565b919050565b6000604051905090565b600067ffffffffffffffff82111561128d5761128c611447565b5b61129682611476565b9050602081019050919050565b60008190508160005260206000209050919050565b600081519050919050565b600082825260208201905092915050565b60006112df8261133a565b91506112ea8361133a565b9250828210156112fd576112fc6113e9565b5b828203905092915050565b60006113138261131a565b9050919050565b600073ffffffffffffffffffffffffffffffffffffffff82169050919050565b6000819050919050565b82818337600083830152505050565b60005b83811015611371578082015181840152602081019050611356565b83811115611380576000848401525b50505050565b6000600282049050600182168061139e57607f821691505b602082108114156113b2576113b1611418565b5b50919050565b6113c182611476565b810181811067ffffffffffffffff821117156113e0576113df611447565b5b80604052505050565b7f4e487b7100000000000000000000000000000000000000000000000000000000600052601160045260246000fd5b7f4e487b7100000000000000000000000000000000000000000000000000000000600052602260045260246000fd5b7f4e487b7100000000000000000000000000000000000000000000000000000000600052604160045260246000fd5b6000601f19601f8301169050919050565b61149081611308565b811461149b57600080fd5b50565b6114a78161133a565b81146114b257600080fd5b5056fea2646970667358221220d38a6086695cbdb5e8663075f8cd9c4d693ae10bd7b6346ecdddad9db4467dd564736f6c63430008040033",
  "immutableReferences": {},
  "source": "//SPDX-License-Identifier: MIT\n\npragma solidity ^0.8.4;\n\ncontract GravatarRegistry {\n  event NewGravatar(uint256 id, address indexed owner, string displayName, string imageUrl);\n  event UpdatedGravatar(uint id, address indexed owner, string displayName, string imageUrl);\n\n  struct Gravatar {\n    address owner;\n    string displayName;\n    string imageUrl;\n  }\n\n  Gravatar[] public gravatars;\n\n  mapping (uint => address) public gravatarToOwner;\n  mapping (address => uint) public ownerToGravatar;\n\n  function createGravatar(string  memory _displayName, string memory _imageUrl) public {\n    require(ownerToGravatar[msg.sender] == 0);\n    gravatars.push(Gravatar(msg.sender, _displayName, _imageUrl));\n    \n    uint256 id = gravatars.length - 1;\n\n    gravatarToOwner[id] = msg.sender;\n    ownerToGravatar[msg.sender] = id;\n\n    emit NewGravatar(id, msg.sender, _displayName, _imageUrl);\n  }\n\n  function getGravatar(address owner) public view returns (string memory, string memory) {\n    uint id = ownerToGravatar[owner];\n    return (gravatars[id].displayName, gravatars[id].imageUrl);\n  }\n\n  function updateGravatarName(string memory _displayName) public {\n    require(ownerToGravatar[msg.sender] != 0);\n    require(msg.sender == gravatars[ownerToGravatar[msg.sender]].owner);\n\n    uint id = ownerToGravatar[msg.sender];\n\n    gravatars[id].displayName = _displayName;\n    emit UpdatedGravatar(id, msg.sender, _displayName, gravatars[id].imageUrl);\n  }\n\n  function updateGravatarImage(string memory _imageUrl) public {\n    require(ownerToGravatar[msg.sender] != 0);\n    require(msg.sender == gravatars[ownerToGravatar[msg.sender]].owner);\n\n    uint id = ownerToGravatar[msg.sender];\n\n    gravatars[id].imageUrl =  _imageUrl;\n    emit UpdatedGravatar(id, msg.sender, gravatars[id].displayName, _imageUrl);\n  }\n\n  // the gravatar at position 0 of gravatars[]\n  // is fake\n  // it's a mythical gravatar\n  // that doesn't really exist\n  // dani will invoke this function once when this contract is deployed\n  // but then no more\n  function setMythicalGravatar() public {\n    gravatars.push(Gravatar(address(0x0), \" \", \" \"));\n  }\n}",
  "sourcePath": "/Users/alexandermazaletskiy/Documents/Upwork/kukuswapgraph/example-subgraph/contracts/Gravity.sol",
  "compiler": {
    "name": "solc",
    "version": "0.8.4+commit.c7e474f2.Emscripten.clang"
  },
  "schemaVersion": "3.3.3",
  "updatedAt": "2021-07-17T17:43:47.586Z",
  "devdoc": {
    "kind": "dev",
    "methods": {},
    "version": 1
  },
  "userdoc": {
    "kind": "user",
    "methods": {},
    "version": 1
  }
}